:020000040800F2
:1000000058050020010100083F0F00086B0D000893
:100010003D0F0008490100086B12000800000000B5
:10002000000000000000000000000000630F000856
:100030004B01000800000000610F0008650F000878
:100040001B0100081B0100081B0100081B01000820
:100050001B0100081B0100081B0100081B01000810
:100060001B0100081B0100081B0100081B01000800
:100070001B0100081B0100081B0100081B010008F0
:100080001B0100081B0100081B0100081B010008E0
:100090001B0100081B0100081B0100081B010008D0
:1000A0001B0100081B0100081B0100081B010008C0
:1000B0001910000835100008551000081B01000831
:1000C0001B0100081B0100081B0100081B010008A0
:1000D0001B0100081B0100081B0100081B01000890
:1000E0001B0100081B0100081B010008DFF80CD0F1
:1000F00000F018F8004800473513000858050020A4
:100100000648804706480047FEE7FEE7FEE7FEE7B1
:10011000FEE7FEE7FEE7FEE7FEE7FEE7D10F000899
:10012000ED000008064C074D06E0E06840F00103D2
:1001300094E8070098471034AC42F6D3FFF7DAFF93
:100140006415000884150008FEE770472DE9F84F94
:10015000DFF890A100220AF1040B144601274FF0AA
:100160000F090BF1040E00BF0B6807FA04F52B40D2
:10017000AB4274D1DFF870C14E68A6EB0C0866453F
:100180002BD00DDC032E34D005DC36B3012E19D074
:10019000022E2FD11BE0112E16D0122E2AD119E0DB
:1001A000B8F5881F19D006DCB8F5803F15D0B8F532
:1001B000801F1FD111E0B8F5001F0ED0B8F5041F45
:1001C00018D10AE0CA6815E0CA68121D12E0CA68B0
:1001D00008320FE0CA680C320CE08A682AB1012AA2
:1001E0004FF0080203D0456104E0042202E00561FB
:1001F00000E00022FF2B01D8064601E000F10406D2
:100200004FEA840501D9A5F12005D6F800C009FA06
:1002100005F82CEA080C02FA05F54CEA050CC6F8BC
:1002200000C04D68ED0057D5304DAE6946F001066F
:10023000AE61AD6924F0030605F0010500952C4D73
:1002400006EB050CDCF80850A6074FEA167809FA09
:1002500008F6B543274EB04202D1002610E03BE03D
:10026000254EB04201D101260AE0244EB04201D110
:10027000022605E0224EB04201D1032600E004260A
:1002800006FA08F62E43CCF808604D68DAF80060EC
:10029000ED03554601D51E4300E09E432E604D6898
:1002A000DBF80060AD035D4601D51E4300E09E43D0
:1002B0002E604D68DEF80060ED02754601D51E43E4
:1002C00000E09E432E604D68AD020E4D2E6801D5B4
:1002D0001E4300E09E432E60641C102CFFF444AFCC
:1002E000BDE8F88F0004014000001110001002402A
:1002F0000000014000080140000C014000100140D6
:10030000001401400C0401408068084000D0012026
:100310007047C2684A40C26070470AB101617047C5
:100320000904FBE701488068704700007C0000205A
:100330000248816802781144816070477C00002087
:10034000074810B5016841F010010160032000F07A
:100350009DF8002000F006F800F024F8002010BD01
:100360000020024070B50D4D04464FF47A71287894
:10037000B1FBF0F00A490968B1FBF0F000F00DFBA9
:1003800048B9102C07D200222146501E00F05EF81A
:1003900000206C6070BD012070BD00007C0000205A
:1003A00088000020214808B5816941F00101816180
:1003B000816901F001010091C16941F08051C16181
:1003C000C06900F080500090032000F05FF8002228
:1003D00011466FF00B0000F039F8002211466FF063
:1003E0000A0000F033F8002211466FF0090000F017
:1003F0002DF800221146501F00F028F80022114667
:10040000101F00F023F800221146901E00F01EF885
:1004100000221146501E00F019F80548416821F0ED
:10042000E06141F00071416008BD00000010024031
:100430000000014000F01F020121914040098000AE
:1004400000F1E020C0F8001170470000F0B40E4B3E
:100450001B680C46C3F30223C3F10705042D00D922
:100460000425191D072901D2002300E0DB1E012607
:1004700006FA05F1491E214099409E40761E16401D
:100480003143F0BC00F05CBD0CED00E0064900F02B
:10049000070208684FF6FF03184040EA0220034AAB
:1004A00010430860704700000CED00E00000FA0502
:1004B0002DE9F047DFF83C8105460E46D8F80000EC
:1004C00000F00700B0420CD2D8F8001021F007016C
:1004D0003143C8F80010D8F8000000F00700B0421F
:1004E00063D12878444C800705D56068A96820F05E
:1004F000F000084360602878C00745D0686801288C
:1005000016D02168022816D0890700294DDA6168C3
:1005100021F0030101436160FFF704FF69680746AA
:1005200041F2883001290FD00229814619D027E0F5
:1005300021688903E9E78901E7E700BFFFF7F2FED9
:10054000C11B494501D918E081466068C0F38100AC
:100550000128F3D118E000BFFFF7E4FEC11B4945B5
:100560000BD86068C0F381000228F5D10CE000BF11
:10057000FFF7D8FEC11B494502D90320BDE8F0872B
:10058000606810F00C0FF3D1D8F80010404601F06D
:100590000701B1420BD9016821F007013143016025
:1005A000006800F00700B04201D00120E6E728789B
:1005B000400705D56068E96820F4E06008436060A2
:1005C0002878000706D56068296920F4605040EA61
:1005D000C100606000F01CF86168084AC1F30311B3
:1005E000515CC840064908600020FFF7BBFE0020B0
:1005F000C4E700000020024000100240541500082B
:100600008800002001480068704700008800002032
:1006100012A185B00FC98DE80F0014A0144A00681C
:1006200004905168134801F00C03042B10D0082BE0
:100630000ED1C1F38343C9031DF803000AD55168E5
:1006400004AAC1F34041515C0A4A5043B0FBF1F0A7
:1006500005B0704708494843FAE700000203040563
:10066000060708090A0B0C0D0E0F101001020000FE
:100670000010024000127A0000093D002DE9F84FF9
:1006800004460078B94DC00748D06868C0F38100BF
:10069000012807D06868C0F38100022809D1686882
:1006A000C00306D52868800338D5606800286FD05D
:1006B00034E06068B0F5803F0BD010B1B0F5A02FEA
:1006C00011D0286820F480302860286820F4802029
:1006D00002E0286840F480302860606888B1FFF745
:1006E00021FE064609E0286840F480202860F0E7F3
:1006F000FFF718FE801B642875D828688003F7D59B
:100700000CE0FFF70FFE064605E000BFFFF70AFE0C
:10071000801B6428F0D828688003F7D42078944E92
:1007200080074FF001094FF000083BD5686810F0D2
:100730000C0F07D06868C0F38100022809D16868EF
:10074000C00306D42868800714D5206901281FD16A
:1007500010E02069B0B1C6F80090FFF7E3FD07464E
:1007600005E000BFFFF7DEFDC01B0228C4D82868E3
:100770008007F7D52868616920F0F80040EAC100D9
:1007800028600FE0C6F80080FFF7CCFD074606E0C2
:10079000E9E000BFFFF7C6FDC01B022823D8286888
:1007A0008007F7D4207800072CD57248A169D9B109
:1007B000C0F80090FFF7B6FD074604E0FFF7B2FD72
:1007C000C01B02280FD8686A8007F7D56A484FF423
:1007D000FA510068B0FBF1F0009000BF0098411E94
:1007E0000091FAD20EE080E0C0F80080FFF79AFD99
:1007F000074604E0FFF796FDC01B022875D8686A1B
:100800008007F7D42078400760D5E8690027C0004A
:1008100008D4E86940F08050E861E869012700F0F9
:100820008050009055480168C90513D4016883467B
:1008300041F480710160FFF775FD824606E000BF5C
:10084000FFF770FDA0EB0A0064284ED8DBF800002B
:10085000C005F5D5E06801280AD008B1052813D0F5
:10086000286A20F001002862286A20F0040002E0D3
:10087000286A40F001002862E06841F2883B98B1A4
:10088000FFF750FD82460BE0286A40F00400286222
:10089000EEE700BFFFF746FDA0EB0A0159455AD825
:1008A000286A8007F6D50CE0FFF73CFD824605E09C
:1008B000FFF738FDA0EB0A0159454CD8286A80079C
:1008C000F6D41FB1E86920F08050E861E06988B390
:1008D0006968C1F38101022945D00228C6F8608009
:1008E00004D0FFF71FFD044638E034E0FFF71AFD9F
:1008F000074604E0FFF716FDC01B02282BD8286826
:100900008001F7D4206AB0F5803F05D16868A168FE
:1009100020F4003008436860D4E90801084369689E
:1009200021F4741108436860C6F86090FFF7FAFC80
:10093000044606E015E000BFFFF7F4FC001B0228A8
:1009400009D828688001F7D50BE000BFFFF7EAFC63
:10095000001B022802D90320BDE8F88F2868800117
:10096000F4D40020F8E70120F6E700000010024070
:100970000000424280044242880000200070004093
:100980004FF0E0210428086903D020F0040008613A
:10099000704740F00400FAE7704710B5401EB0F110
:1009A000807F01D3012010BD4FF0E02460610F2152
:1009B000601700F0C5FA0020A06107202061002028
:1009C00010BD10B5FFF7E8FF10BD7047704730B598
:1009D00090F83C20012A20D0012280F83C200223FC
:1009E00080F83D3003685C6824F070045C60036844
:1009F0005C680D682C435C6003689C6824F080048C
:100A00009C6003689C6849680C439C6080F83D20AA
:100A1000002180F83C10084630BD022030BD10B5E2
:100A2000040003D094F83D0010B107E0012010BD90
:100A3000002084F83C00204600F00CF8022084F8E6
:100A40003D00211D206800F0A5FB012084F83D0039
:100A5000002010BD08B501681148B1F1804F0BD0DE
:100A6000104A914210D1C16941F00201C161C069CF
:100A700000F00200009008BDC16941F00101C161B0
:100A8000C06900F00100F5E7074A9142F3D1C1695E
:100A900041F00401C161C06900F00400EAE7000010
:100AA000001002400004004000080040022180F8CD
:100AB0003D1001680A6842F001020A60012180F8D5
:100AC0003D10002070470168CA6842F00102CA6008
:100AD0000068016841F00101016000207047016871
:100AE000CA6822F00102CA600068016A41F211126C
:100AF000114207D1016A9210114203D1016821F01D
:100B0000010101600020704770B5044690F83C0078
:100B1000012817D0012584F83C50022084F83D00BC
:100B20002068826822F0770222F47F42826008689F
:100B3000502837D00DDC202859D005DC88B3102888
:100B400041D151E0022070BD302853D040283AD125
:100B50003FE060282ED070280BD0B0F5805F03D026
:100B6000B0F5005F2FD110E02068816821F0070107
:100B700015E0CB68D1E90121206800F041FB216834
:100B8000886840F0770088601DE0CB68D1E90121DA
:100B9000206800F035FB2068816841F48041816065
:100BA00011E01EE0CA684968206800F03BFB502154
:100BB000206806E0CA684968206800F044FB6021AC
:100BC000206800F027FB84F83D50002084F83C00AA
:100BD00070BDCA684968206800F024FB4021206885
:100BE000EFE700212068ECE710212068E9E72021E9
:100BF0002068E6E730212068E3E7704770B50446D7
:100C0000006801694FF00005C943890715D4C16820
:100C1000C943890711D4E91E0161012020772068AA
:100C200080698007204602D0FFF7E7FF04E000F06C
:100C300098F8204600F096F8257720680169C943A6
:100C4000490717D4C168C943490713D46FF0040199
:100C50000161022020772068806910F4407F2046DF
:100C600002D0FFF7CAFF04E000F07BF8204600F056
:100C700079F8257720680169C943090716D4C16846
:100C8000C943090712D46FF00801016104202077DD
:100C90002068C0698007204602D0FFF7AEFF04E05D
:100CA00000F05FF8204600F05DF8257720680169C4
:100CB000C943C90617D4C168C943C90613D46FF024
:100CC00010010161082020772068C06910F4407F7E
:100CD000204602D0FFF791FF04E000F042F82046E2
:100CE00000F040F8257720680169C943C90708D199
:100CF000C168C943C90704D1891E0161204600F0BB
:100D000032F820680169C943090609D4C168C9439A
:100D1000090605D46FF0800101612046FFF755FEFA
:100D200020680169C943490609D4C168C943490615
:100D300005D46FF040010161204600F015F82068ED
:100D40000169C94389060BD4C168C943890607D420
:100D50006FF0200101612046BDE87040FFF736BE0C
:100D600070BD7047704770477047FEE72DE9F04F40
:100D7000304885B0816941F010018161816901F0DD
:100D800010010491816941F004018161816901F0E0
:100D900004010491816941F0080181618069DFF8F3
:100DA000989000F008004FF400440490002221467F
:100DB0004846FFF7B2FADFF884A04FF6F07700223A
:100DC00039465046FFF7A9FADFF874B04FF480684F
:100DD000002241465846FFF7A0FA0126CDE9004619
:100DE0000024022569464846CDE90245FFF7AEF9E1
:100DF00040F6FF008DE8310069465846FFF7A6F936
:100E000009208DE8310069465046FFF79FF9CDE98A
:100E1000007669465046CDE90245FFF797F9CDE9DE
:100E2000008669465846CDE90245FFF78FF905B0BF
:100E3000BDE8F08F0010024000100140000C01409E
:100E40000008014010B5124886B04FF080410160A3
:100E50007C210024C0E901142821C0E90314846125
:100E6000FFF7DDFD00B1FEE74FF4805000906946CA
:100E70000748FFF749FE00B1FEE7049404A90448BF
:100E80000594FFF7A4FD002800D0FEE706B010BDD2
:100E90008C00002010B5134886B0114901607C21F8
:100EA0000024C0E901142821C0E903148461FFF77C
:100EB000B6FD00B1FEE74FF4805000906946094846
:100EC000FFF722FE00B1FEE7049404A9054805944B
:100ED000FFF77DFD002800D0FEE706B010BD000042
:100EE00000040040CC00002010B5134886B0114922
:100EF00001607C210024C0E901140121C0E9031430
:100F00008461FFF78CFD00B1FEE74FF48050009044
:100F100069460948FFF7F8FD00B1FEE7049404A90B
:100F200005480594FFF753FD002800D0FEE706B002
:100F300010BD0000000800400C010020FEE77047D3
:100F40000907090E002806DA00F00F0000F1E02082
:100F500080F8141D704700F1E02080F800147047FD
:100F60007047704710B5FFF7E3F9BDE81040FFF791
:100F700028BD10B590B002200090012004901020F0
:100F80000024059007946846FFF778FB00B1FEE760
:100F90000F20CDE90A044FF4E0600C94CDE90D4038
:100FA00000210AA8FFF784FA00B1FEE7FFF72AFB49
:100FB0004FF47A71B0FBF1F0FFF7EFFC0420FFF77C
:100FC000DFFC00221146501EFFF740FA10B010BDA2
:100FD0000D48016841F00101016041680B4A114070
:100FE000416001680A4A11400160016821F48021D2
:100FF0000160416821F4FE0141604FF41F018160EE
:101000000449C00308607047001002400000FFF868
:10101000FFFFF6FE08ED00E010B510210348FFF7D2
:1010200078F9BDE810400248FFF7E8BD000C014028
:101030008C00002010B54FF480610448FFF769F977
:10104000BDE810400248FFF7D9BD0000000801408C
:10105000CC0000202DE9F0414548FFF7CFFD454C7D
:101060000025E068401CE06028281AD014380228C7
:1010700018D801214048FFF747F94049626941F813
:101080002200521C6261032A0CD16561D1E9000281
:101090008968104401440120A161022904DB6060D9
:1010A00003E0E560BDE8F081656027690426344906
:1010B000344A354B052FF5D2DFE807F0030B242E19
:1010C00046006268002AEDD120610D60A5602060B5
:1010D000E8E76268012A09D02068A5604000206026
:1010E00020688028DED902202061DBE70B682268B7
:1010F00013440B60E169C1F10101E161510021601C
:10110000A060EDE7E1696068814203D103212161BC
:10111000A060C7E72661C5E76768012F01D02FB13E
:1011200005E0266A761C2662A06000E02661266A39
:10113000022EB7D1154FA0600E683E600D601449B5
:101140002561206008700EE02668802E02D87000AD
:101150002060A7E7266A032E02D2761C2662A1E74A
:101160000D602561206010601D60E560256299E7D3
:101170000C01002058000020000C01404C01002010
:101180005400002034000020180000200800002037
:1011900004000020F0B50268164B174C174D4FF0B5
:1011A0008047984205D0B84203D0A04201D0A8425F
:1011B00003D122F070064A683243984205D0B84203
:1011C00003D0A04201D0A84203D122F44074CA68DF
:1011D000224322F080044A69224302608A68C26284
:1011E0000A688262984201D1096901630121416163
:1011F000F0BD0000002C0140000400400008004049
:1012000010B5846842EA032224F47F440A4322434F
:10121000826010BD826822F070020A4342F007012A
:101220008160704710B5036A046A24F00104046207
:10123000846924F0F00444EA021423F00A020A4309
:101240008461026210BD10B5036A23F010030362CB
:101250008369046A23F4704343EA023224F0A00352
:1012600043EA01118261016210BDFEE702E008C895
:10127000121F08C1002AFAD170477047002001E010
:1012800001C1121F002AFBD1704700002DE9F04177
:10129000254C0025206A38B12448FFF707FC234875
:1012A000FFF711FC25626562214E10213046FFF7E1
:1012B0002BF8E06108213046FFF726F86070E169FD
:1012C000012711B1606A40B129E0616A39B330B3D6
:1012D000E06A0078E060E77021E0A06A28B10122AE
:1012E00020213046FFF719F8A56280213046FFF72C
:1012F0000BF8207020B1002280213046FFF70DF856
:10130000207960B1216BA268086862F31F20086031
:10131000012280213046FFF700F827702571E0692F
:101320006062BDE8F0810000000000208C00002019
:10133000000C0140FFF704F8FFF71BFEFFF716FD56
:10134000FFF780FDFFF7A6FDFFF7CEFD0022114657
:101350001C20FFF77BF81C20FFF76CF800221146D9
:101360001D20FFF773F81D20FFF764F800221146D7
:101370001E20FFF76BF81E20FFF75CF800F0C0F8A6
:10138000FFF784FF00F0C4F8F8E7000070B5012112
:101390000C48FEF7B9FF0C4C0025E063216C884235
:1013A00005D0A06918B10948FFF78DFBA561606BF6
:1013B00028B10648FFF793FB01206563A061E06B4D
:1013C000206470BD000C0140000000200C010020D2
:1013D0002DE9F047454CDFF818A14FF40049E06CC7
:1013E00020B1012249465046FEF797FFE0780026DB
:1013F000DFF80081012570B1E06C60B13E48FFF775
:1014000062FB012240214046FEF787FFA570E6708F
:10141000E664BDE8F087606C0028FAD1A06B002874
:10142000F7D0206D00B30227012825D00228F0D183
:10143000A06C01284AD002284FD00328E9D12E48B9
:10144000A564FFF74CFB002240214046FEF765FFF4
:10145000A670C4E91356E580002266717902BDE8E2
:10146000F0472648FEF759BF002249465046FEF78E
:1014700054FF66612565CCE7217BE0880140C9B255
:101480006171802808D92765227C49465046FEF7BD
:1014900044FF2069606112E081420AD1012249467D
:1014A0005046FEF73AFF65612069C0F101002061F6
:1014B00005E0002249465046FEF72FFF6661E088AE
:1014C0004FF6FF7101EA4000E080A2E701224946A1
:1014D0005046FEF722FFA76406E001224946504627
:1014E000FEF71BFF0320A064656192E70000002067
:1014F00000100140000C0140CC0000200008014019
:1015000010B5FFF765FFBDE81040FFF73FBF0000D3
:1015100070B50D4C0D4D1021A06B6064E0696062E8
:101520002846FEF7F1FEE06108212846FEF7ECFEB2
:10153000607080212846FEF7E7FE2070E914044819
:10154000FEF7E2FEA06370BD00000020000C014029
:101550000008014000000000000000000102030438
:101560000607080984150008000000208C00000010
:101570006C120008101600088C000020CC0400003B
:101580007C120008000000000000010000000000C4
:10159000000000000000000000000000010000004A
:1015A0000000000001000000000000000100000039
:1015B000080801400C0C0140000000000000000081
:1015C0000100000001000000000000000100000018
:1015D0000100000000000000000000000100000009
:1015E00001000000000000000000000000000000FA
:1015F00000000000000000000000000000000000EB
:1016000001000000100000000000000000A24A04D9
:04000005080000ED02
:00000001FF
